:020000040800F2
:1000000000800120051400081113000817130008D0
:100010001D13000823130008291300080000000026
:100020000000000000000000000000002F13000886
:100030003D130008000000004B130008591300088E
:1000400055140008551400085514000855140008EC
:1000500055140008551400085514000855140008DC
:1000600055140008551400085514000855140008CC
:1000700055140008551400085514000855140008BC
:10008000551400085514000855140008000000001D
:1000900000000000000000000000000055140008EF
:1000A000551400085514000855140008551400088C
:1000B000551400085514000855140008551400087C
:1000C000551400085514000855140008551400086C
:1000D00055140008551400085514000800000000CD
:1000E00055140008551400085514000800000000BD
:1000F000000000000000000000000000551400088F
:10010000000000005514000855140008551400089C
:1001100000000000000000000000000000000000DF
:10012000551400085514000855140008551400080B
:10013000551400080000000000000000000000004E
:10014000000000000000000000000000551400083E
:1001500055140008551400085514000855140008DB
:1001600055140008551400080000000000000000AD
:10017000000000000000000000000000000000007F
:1001800000000000551400080000000000000000FE
:0401900055140008FA
:1001A00010B5054C237833B9044B13B10448AFF3B1
:1001B00000800123237010BD5800002000000000C3
:1001C0005822000808B5034B1BB103490348AFF39D
:1001D000008008BD000000005C00002058220008DC
:1001E00001F0FF01102A2BDB10F0070F08D010F8E8
:1001F000013B013A8B422DD010F0070F42B3F6D1EC
:10020000F0B441EA012141EA014122F007047FF004
:1002100000070023F0E80256083C85EA010586EA5B
:10022000010685FA47F5A3FA87F586FA47F6A5FA97
:1002300087F68EB9EED1F0BC01F0FF0102F00702A3
:1002400032B110F8013B013A83EA010313B1F8D14E
:100250000020704701387047002D06BF354603382F
:10026000073815F0010F07D1013015F4807F02BF68
:10027000013015F4C03F0130F0BC0138704700BFB9
:1002800080B588B002AF0021002000F0F5FC114BD2
:1002900093F900301A46104B1B78381D0093DF236A
:1002A0000E4901F03DFB3B1D184600F0FFFC00210C
:1002B000012000F0E1FC0A4B1B78002B03D0094819
:1002C00000F0F4FC02E0084800F0F0FC00BF183732
:1002D000BD4680BD7500002000000020702200088F
:1002E00076000020842200089822000880B588B09B
:1002F00002AF0021002000F0BFFC1F4B1A681F4B0B
:100300001B68D31A632B2BD91D4B1B78002B0CBFFA
:1003100001230023DBB21A46194B1A70164B1B68D7
:10032000164A1360164B1B78002B09D0154B93F916
:1003300000301A46381DDF23134901F0F1FA0BE0B3
:10034000104B93F900301A46104B1B78381D009360
:10035000DF230F4901F0E4FA3B1D184600F0A6FC2C
:100360000021012000F088FC0A4800F09FFC00BF3B
:100370001837BD4680BD00BF840000207C000020EF
:100380008000002075000020AC2200080000002042
:10039000C0220008D822000880B500AF00F0C8F8DD
:1003A00000F03AFC00F066FA002000F021FB084B58
:1003B00000221A70652000F0DCF800F085FA034690
:1003C0001A46044B1A70FFF75BFF00BF80BD00BFE9
:1003D000740000207500002080B500AF002000F000
:1003E00021FB0346002B17D03C4B1B78002B08D178
:1003F0003A4B01221A7000F06FFC394B00221A7040
:100400000AE0364B1B78012B06D1344B00221A70C0
:1004100000F062FCFFF734FF304B1B78002B02D05A
:10042000012B32D052E02F4B1A682F4B1B68D31A86
:10043000B3F5FA7F4ED32B4B1B682B4A136000F0A9
:1004400043FA03461A46294B1A70284B93F9003099
:100450001A46274B1B789A4206DD264B01221A705A
:10046000012000F0C5FA0DE0204B93F900301A4648
:100470001F4B1B789A4205DC1E4B00221A7000208D
:1004800000F0B6FAFFF7FCFE24E0012000F0CAFA03
:100490000346002B08D0164B1B780133DAB2144BFD
:1004A0001A700F4B00221A70022000F0BBFA0346AC
:1004B000002B08D00E4B1B78013BDAB20C4B1A70A4
:1004C000074B00221A70FFF711FF04E0034B0022D4
:1004D0001A7000E000BF00BF80BD00BF74000020A4
:1004E000800000208400002078000020750000209B
:1004F000000000207600002080B483B000AF786058
:100500007B681B6843F001027B681A6000BF0C37F0
:10051000BD465DF8047B704780B483B000AF78605F
:100520007B685B6A18460C37BD465DF8047B7047F4
:1005300080B500AF4FF08040FFF7DEFF00BF80BD09
:1005400080B584B000AF78604FF08040FFF7E4FFE3
:10055000F86000BF4FF08040FFF7DEFF0246FB6807
:10056000D31A7A689A42F5D800BF00BF1037BD464B
:1005700080BD80B582B000AF786003E04FF47A7040
:10058000FFF7DEFF7B685A1E7A60002BF6D100BFB2
:1005900000BF0837BD4680BD80B489B000AFF860A9
:1005A000B9607A60FB681A68BB687B617B6993FA03
:1005B000A3F33B613B69B3FA83F3DBB25B00032136
:1005C00001FA03F3DB431A40BB68FB61FB6993FA52
:1005D000A3F3BB61BB69B3FA83F3DBB25B00796859
:1005E00001FA03F31A43FB681A6000BF2437BD46C3
:1005F0005DF8047B704780B483B000AF78603960E9
:100600007B681A693B6813403A689A420CBF012321
:100610000023DBB218460C37BD465DF8047B7047FB
:1006200080B483B000AF786039603B681A047B689F
:100630009A6100BF0C37BD465DF8047B704700002F
:1006400080B582B000AF0023FB7100220121184861
:10065000FFF7A2FF0520FFF773FF012201211448D5
:10066000FFF79AFF01211248FFF7DAFF4FF4F0700D
:10067000FFF766FF002201210D48FFF78DFF46209E
:10068000FFF75EFF01210A48FFF7B5FF0346002B85
:1006900002D10123FB7101E00023FB714FF4C8700C
:1006A000FFF74EFFFB7918460837BD4680BD00BFF7
:1006B0000000024080B582B000AF0346FB71FB79B9
:1006C000002B14D0012201211548FFF765FF0121FD
:1006D0001348FFF7A5FF0620FFF732FF0022012194
:1006E0000F48FFF759FF4020FFF72AFF13E00122D0
:1006F00001210B48FFF750FF01210948FFF790FF48
:100700003C20FFF71DFF002201210548FFF744FFB1
:100710000A20FFF715FF00BF0837BD4680BD00BFA8
:100720000000024080B582B000AF0023FB710122BF
:1007300001211348FFF730FF01211148FFF770FF37
:100740000620FFF7FDFE002201210D48FFF724FFE0
:100750000920FFF7F5FE01210948FFF74CFF03468A
:10076000002B02D00123FB7101E00023FB71372035
:10077000FFF7E6FEFB7918460837BD4680BD00BF8F
:100780000000024080B584B000AF0346FB71002337
:10079000FB730CE0FB7903F00103DBB21846FFF7B3
:1007A00089FFFB795B08FB71FB7B0133FB73FB7BF0
:1007B000072BEFD900BF00BF1037BD4680BD80B505
:1007C00082B000AF0023FB710023BB7111E0FFF783
:1007D000A9FF0346002B09D0BB79012202FA03F3DB
:1007E0005AB297F9073013435BB2FB71BB790133FF
:1007F000BB71BB79072BEAD9FB7918460837BD4690
:1008000080BD80B485B000AF78600B46FB700023DC
:10081000FB730023BB7322E0BB7B7A6813441A7816
:10082000FB7B5340FB7300237B7312E0FB7B03F0E5
:100830000103002B07D0FB7B5B08DBB283F0730363
:10084000DB43FB7302E0FB7B5B08FB737B7B0133C9
:100850007B737B7B072BE9D9BB7B0133BB73BA7BF3
:10086000FB789A42D8D3FB7B18461437BD465DF817
:10087000047B704780B500AF002201211148FFF7CB
:100880008BFEFFF7DDFE0346002B0ED0CC20FFF7DA
:1008900079FF4E20FFF776FF4B20FFF773FF4620CE
:1008A000FFF770FF1F20FFF76DFFFFF7C9FE03463C
:1008B000002B05D0CC20FFF765FF4420FFF762FF37
:1008C00000BF80BD0000024090B585B000AF00239E
:1008D000BB81FFF7B5FE0346002B42D0CC20FFF7CB
:1008E00051FFBE20FFF74EFF0023FB730CE0FC7BA3
:1008F000FFF765FF03461A4604F110033B4403F873
:10090000102CFB7B0133FB73FB7B082BEFD93B46A1
:1009100008211846FFF775FF03461A463B7A9A42AC
:100920001FD17B781B021AB23B781BB21343BB81E9
:10093000B7F90C30002B0ADBB7F90C300833002B69
:1009400000DA0F331B115AB20F4B1A7009E0B7F9D6
:100950000C30083B002B00DA0F331B115AB20A4B44
:100960001A70FFF76DFE0346002B05D0CC20FFF771
:1009700009FF4420FFF706FF034B93F900301846A8
:100980001437BD4690BD00BF8100002080B483B005
:1009900000AF786039607B681A693B6813403A6839
:1009A0009A420CBF01230023DBB218460C37BD4628
:1009B0005DF8047B704780B483B000AF7860396025
:1009C0007B683A689A6100BF0C37BD465DF8047BCE
:1009D000704780B483B000AF786039603B681A0418
:1009E0007B689A6100BF0C37BD465DF8047B704799
:1009F00080B582B000AF0346FB71FB79002B05D0B8
:100A00004FF480610648FFF7E4FF04E04FF4806193
:100A10000348FFF7D0FF00BF0837BD4680BD00BFC9
:100A20000004024080B584B000AF0346FB71FB793F
:100A3000022B0CD0022B0DDC002B02D0012B03D09B
:100A400008E00123FB6007E00223FB6004E00423CD
:100A5000FB6001E000231BE0F9680F48FFF796FFF9
:100A60000346002B13D11420FFF783FDF9680A48D1
:100A7000FFF78CFF0346002B09D100BFF968064839
:100A8000FFF784FF0346002BF8D0012300E000238A
:100A900018461037BD4680BD0004024080B483B0C4
:100AA00000AF786039607B683A689A6100BF0C37A4
:100AB000BD465DF8047B704780B483B000AF7860BA
:100AC00039603B681A047B689A6100BF0C37BD46E9
:100AD0005DF8047B7047000080B500AF2021074817
:100AE000FFF7DCFF0220FFF72BFD20210348FFF773
:100AF000E3FF3220FFF724FD00BF80BD000002406D
:100B000080B582B000AF0346FB71FB7903F00103AF
:100B1000002B04D040211E48FFF7C0FF03E0402116
:100B20001B48FFF7C9FFFB7903F00203002B04D039
:100B300080211748FFF7B2FF03E080211448FFF738
:100B4000BBFFFB7903F00403002B05D04FF4807149
:100B50000F48FFF7A3FF04E04FF480710C48FFF744
:100B6000ABFFFB7903F00803002B05D04FF40071B5
:100B70000748FFF793FF04E04FF400710448FFF7C4
:100B80009BFFFFF7A9FF00BF0837BD4680BD00BF30
:100B90000000024080B582B000AF0346FB71102117
:100BA0000E48FFF789FFFB791B09DBB21846FFF7F8
:100BB000A7FFFB7903F00F03DBB21846FFF7A0FF96
:100BC000FB79012B02D0FB79022B02D10220FFF727
:100BD000D0FC00BF0837BD4680BD00BF000002400A
:100BE00080B582B000AF0346FB7110210948FFF7C2
:100BF00055FFFB791B09DBB21846FFF781FFFB7934
:100C000003F00F03DBB21846FFF77AFF00BF083787
:100C1000BD4680BD0000024080B500AF3220FFF726
:100C2000A8FC10211348FFF747FF0320FFF768FFD8
:100C30000520FFF79EFC0320FFF762FF0120FFF76E
:100C400098FC0320FFF75CFF0120FFF792FC0220D5
:100C5000FFF756FF0120FFF78CFC2820FFF79AFFD3
:100C60000C20FFF797FF0620FFF794FF00F034F801
:100C700000BF80BD0000024080B584B000AF0346D5
:100C80000A46FB711346BB71FB79002B03D1BB797C
:100C9000803BFB7302E0BB79403BFB73FB7B184658
:100CA000FFF778FF00BF1037BD4680BD80B582B02A
:100CB00000AF786007E07B681B781846FFF790FF6D
:100CC0007B6801337B607B681B78002BF3D100BF0E
:100CD00000BF0837BD4680BD80B500AF0120FFF7DB
:100CE00059FF00BF80BD000080B485B000AF7860C0
:100CF0007B6803F00703FB600C4BDB68BB60BA68E2
:100D00004FF6FF031340BB60FB681A02BB68134336
:100D100043F0BF6343F40033BB60044ABB68D36055
:100D200000BF1437BD465DF8047B704700ED00E05E
:100D300080B400AF044BDB681B0A03F007031846BE
:100D4000BD465DF8047B704700ED00E080B483B0E1
:100D500000AF03463960FB7197F90730002B0ADBBF
:100D60003B68DAB20C4997F907301201D2B20B4452
:100D700083F800230AE03B68DAB20849FB7903F004
:100D80000F03043B1201D2B20B441A7600BF0C379A
:100D9000BD465DF8047B704700E100E000ED00E037
:100DA00080B489B000AFF860B9607A60FB6803F086
:100DB0000703FB61FB69C3F10703042B28BF04236E
:100DC000BB61FB690433062B02D9FB69033B00E0DE
:100DD00000237B614FF0FF32BB6902FA03F3DA4371
:100DE000BB681A407B699A404FF0FF317B6901FA7A
:100DF00003F3D9437B680B40134318462437BD46A1
:100E00005DF8047B7047000080B400AF054B1B68A1
:100E1000044A43F00103136000BFBD465DF8047B44
:100E2000704700BF0038024080B400AF064B1B681B
:100E300003F00203022B0CBF01230023DBB2184690
:100E4000BD465DF8047B70470038024080B483B033
:100E500000AF7860074B1B6823F0F8027B68DB006B
:100E6000044913430B6000BF0C37BD465DF8047B9B
:100E7000704700BF0038024080B483B000AF786094
:100E8000064B9B6823F0030204497B6813438B6085
:100E900000BF0C37BD465DF8047B70470038024048
:100EA00080B400AF044B9B6803F00C031846BD46AA
:100EB0005DF8047B704700BF0038024080B483B007
:100EC00000AF7860064B9B6823F0F00204497B6812
:100ED00013438B6000BF0C37BD465DF8047B704741
:100EE0000038024080B483B000AF7860064B9B6846
:100EF00023F4E05204497B6813438B6000BF0C3736
:100F0000BD465DF8047B70470038024080B483B072
:100F100000AF7860064B9B6823F4604204497B680D
:100F200013438B6000BF0C37BD465DF8047B7047F0
:100F30000038024080B483B000AF7860074BD3F82C
:100F40008C3023F0807205497B681343C1F88C30E4
:100F500000BF0C37BD465DF8047B70470038024087
:100F600080B485B000AF7860084B1A6B07497B6886
:100F700013430B63054B1A6B7B681340FB60FB68E4
:100F800000BF1437BD465DF8047B7047003802404F
:100F900080B485B000AF7860084B1A6C07497B6855
:100FA00013430B64054B1A6C7B681340FB60FB68B2
:100FB00000BF1437BD465DF8047B7047003802401F
:100FC00080B485B000AF7860084B5A6C07497B68E5
:100FD00013434B64054B5A6C7B681340FB60FB6802
:100FE00000BF1437BD465DF8047B704700380240EF
:100FF00080B483B000AF7860064B1B6823F0070213
:1010000004497B6813430B6000BF0C37BD465DF895
:10101000047B7047003C024080B400AF044B1B6867
:1010200003F007031846BD465DF8047B704700BF18
:10103000003C024080B400AF054B1B68044A43F0FB
:101040000203136000BFBD465DF8047B704700BF1C
:1010500010E000E080B483B000AF7860064B1B68FE
:1010600023F4404204497B6813430B6000BF0C37F4
:10107000BD465DF8047B70470070004080B483B0CB
:1010800000AF78607B681B6823F080027B681A6081
:1010900000BF0C37BD465DF8047B704780B483B059
:1010A00000AF786039607B689B6823F4804323F04D
:1010B00007033A681A437B689A6000BF0C37BD4645
:1010C0005DF8047B704780B483B000AF786039600E
:1010D0007B685B6823F070023B681A437B685A6048
:1010E00000BF0C37BD465DF8047B704780B483B009
:1010F00000AF78607B689B6823F080027B689A6011
:1011000000BF0C37BD465DF8047B704780B483B0E8
:1011100000AF786039603B681A047B689A6100BF51
:101120000C37BD465DF8047B704780B500AF4FF4C7
:101130008040FFF745FF4FF08050FFF729FF032065
:10114000FFF7D2FDFFF7F4FD034600220F211846FA
:10115000FFF726FE034619464FF0FF30FFF7F6FD76
:1011600000F00CF8FFF766FF00F074F800F040F8AC
:10117000FFF712F9FFF730F9FCE7000080B500AF88
:101180000020FFF735FF00BFFFF746FF0346002BA7
:10119000FAD14FF40040FFF75DFF1020FFF756FE35
:1011A000FFF732FE00BFFFF73FFE0346012BFAD1E7
:1011B0000020FFF783FE0020FFF794FE0020FFF7DA
:1011C000A5FE0020FFF758FE00BFFFF769FE0346AB
:1011D000002BFAD1054800F085FB044800F090FB95
:1011E0000020FFF7A7FE00BF80BD00BF0024F40071
:1011F00080B586B000AF3B1D00221A605A609A602D
:10120000DA601A610120FFF7C3FE0F23BB800023C1
:10121000BB604FF0FF33FB6000233B613B1D194671
:101220004FF0804000F0CAFA4FF08040FFF726FFF1
:1012300000214FF08040FFF731FF00214FF0804048
:10124000FFF741FF4FF08040FFF750FF00BF183716
:10125000BD4680BD80B586B000AF3B4600221A6017
:101260005A609A60DA601A615A610120FFF778FECD
:101270000220FFF775FE40F2F1312348FFF746FFE9
:101280004FF484612148FFF741FF01233B600123B4
:101290007B600023BB600123FB6001233B613B4675
:1012A0001946194800F0DCF94FF47C733B600123C8
:1012B0007B600023BB600023FB6000233B613B4657
:1012C0001946114800F0CCF907233B6000237B60EE
:1012D00001233B613B4619460C4800F0C1F94FF42D
:1012E00084633B6001237B600023BB600023FB60C1
:1012F00000233B613B461946044800F0B1F900BFAA
:101300001837BD4680BD00BF000002400004024007
:1013100080B400AFFEE780B400AFFEE780B400AF5A
:10132000FEE780B400AFFEE780B400AFFEE780B414
:1013300000AF00BFBD465DF8047B704780B400AFCE
:1013400000BFBD465DF8047B704780B400AF00BFAE
:10135000BD465DF8047B704780B400AF044B1B684A
:101360000133034A136000BFBD465DF8047B70473C
:101370008400002080B586B000AF7860144A154B19
:10138000D31A7B617B693B61134B1B68002B02D135
:10139000114B124A1A60104B1A687B6813443A6961
:1013A0009A4207D200F0DCFA03460C221A604FF092
:1013B000FF3309E0084B1B68FB60074B1A687B682A
:1013C0001344054A1360FB6818461837BD4680BDB4
:1013D000008001200004000088000020D8010020C7
:1013E00080B400AF064BD3F88830054A43F470034D
:1013F000C2F8883000BFBD465DF8047B704700BF6F
:1014000000ED00E0DFF834D00D480E490E4A00230D
:1014100002E0D458C4500433C4188C42F9D30B4AA8
:101420000B4C002301E013600432A242FBD3FFF710
:10143000D7FF00F09BFAFFF778FE7047008001208D
:10144000000000205800002024230008580000203D
:10145000D4010020FEE780B489B000AFF860B96025
:101460007A60FB681A68BB687B617B6993FAA3F3B7
:101470003B613B69B3FA83F3DBB25B00032101FA02
:1014800003F3DB431A40BB68FB61FB6993FAA3F3E8
:10149000BB61BB69B3FA83F3DBB25B00796801FA25
:1014A00003F31A43FB681A6000BF2437BD465DF89A
:1014B000047B704780B485B000AFF860B9607A6093
:1014C000FB685A68BB68DB431A40BB68796801FB5C
:1014D00003F31A43FB685A6000BF1437BD465DF83A
:1014E000047B704780B489B000AFF860B9607A605F
:1014F000FB689A68BB687B617B6993FAA3F33B61E5
:101500003B69B3FA83F3DBB25B00032101FA03F317
:10151000DB431A40BB68FB61FB6993FAA3F3BB6131
:10152000BB69B3FA83F3DBB25B00796801FA03F3BA
:101530001A43FB689A6000BF2437BD465DF8047B00
:10154000704780B489B000AFF860B9607A60FB681A
:10155000DA68BB687B617B6993FAA3F33B613B6903
:10156000B3FA83F3DBB25B00032101FA03F3DB433D
:101570001A40BB68FB61FB6993FAA3F3BB61BB69CB
:10158000B3FA83F3DBB25B00796801FA03F31A4321
:10159000FB68DA6000BF2437BD465DF8047B704706
:1015A00080B489B000AFF860B9607A60FB681A6AED
:1015B000BB687B617B6993FAA3F33B613B69B3FA38
:1015C00083F3DBB29B000F2101FA03F3DB431A40E4
:1015D000BB68FB61FB6993FAA3F3BB61BB69B3FA18
:1015E00083F3DBB29B00796801FA03F31A43FB68CB
:1015F0001A6200BF2437BD465DF8047B704780B493
:1016000089B000AFF860B9607A60FB685A6ABB685D
:101610001B0A7B617B6993FAA3F33B613B69B3FAD5
:1016200083F3DBB29B000F2101FA03F3DB431A4083
:10163000BB681B0AFB61FB6993FAA3F3BB61BB693F
:10164000B3FA83F3DBB29B00796801FA03F31A4320
:10165000FB685A6200BF2437BD465DF8047B7047C3
:1016600080B588B000AF786039600023FB6100234B
:10167000BB613B681B687B617B6993FAA3F33B61A9
:101680003B69B3FA83F3DBB2FB6150E03B681A6855
:101690000121FB6901FA03F31340BB61BB69002B15
:1016A00042D03B685B68012B03D03B685B68022B30
:1016B0000DD13B689B681A46B9697868FFF712FF3D
:1016C0003B68DB681A46B9697868FFF7F3FE3B6848
:1016D0001B691A46B9697868FFF733FF3B685B6896
:1016E000022B1AD1BB69FB60FB6893FAA3F3BB60C2
:1016F000BB68B3FA83F3DBB2072B07D83B685B699F
:101700001A46B9697868FFF74BFF06E03B685B69EA
:101710001A46B9697868FFF772FF3B685B681A463A
:10172000B9697868FFF797FEFB690133FB613B6895
:101730001A68FB6922FA03F3002BA7D1002318468D
:101740002037BD4680BD80B483B000AF786039607B
:101750007B683A689A6200BF0C37BD465DF8047B2F
:10176000704780B483B000AF786039607B683A68B6
:10177000DA6200BF0C37BD465DF8047B704780B469
:1017800083B000AF786039607B683A681A6300BF45
:101790000C37BD465DF8047B704780B483B000AF62
:1017A00078607B685B6943F001027B685A6100BF27
:1017B0000C37BD465DF8047B7047000080B584B0EF
:1017C00000AF786039607B681B68FB607B68314ADA
:1017D00093420FD07B68B3F1804F0BD07B682E4AC9
:1017E000934207D07B682D4A934203D07B682C4AF2
:1017F000934206D1FB6823F070023B685B68134399
:10180000FB607B68234A93421BD07B68B3F1804F17
:1018100017D07B68204A934213D07B681F4A9342BB
:101820000FD07B681E4A93420BD07B681D4A9342BF
:1018300007D07B681C4A934203D07B681B4A9342C3
:1018400006D1FB6823F440723B68DB681343FB60FE
:101850007B68FA681A603B689B6819467868FFF7EE
:1018600080FF3B681B8819467868FFF76CFF7B6830
:10187000084A934205D13B681B6919467868FFF70F
:101880007EFF7868FFF789FF002318461037BD46B2
:1018900080BD00BF0000014000040040000800407F
:1018A000000C00400040014000440140004801405D
:1018B00080B483B000AF786039607A683B68B2FB6F
:1018C000F3F3074A013B5360054B00229A60044B37
:1018D00005221A6000BF0C37BD465DF8047B7047D7
:1018E00010E000E080B582B000AF78604FF47A710C
:1018F0007868FFF7DDFF00BF0837BD4680BD0000F8
:1019000080B483B000AF7860044A7B68136000BF86
:101910000C37BD465DF8047B704700BF0400002013
:101920000EB400B59CB01DAB029006906FF0004164
:10193000094807910491094953F8042B059100685F
:10194000019302A900F08AF9029B00221A701CB0D0
:101950005DF804EB03B07047540000200802FFFF5D
:10196000014B1868704700BF5400002070B50D4D42
:101970000D4C641BA4100026A64209D10B4D0C4C43
:1019800000F06AFC641BA4100026A64205D170BDBD
:1019900055F8043B98470136EEE755F8043B984765
:1019A0000136F2E71C2300081C2300081C23000852
:1019B000202300087047704737B5002944D051F8FC
:1019C000043C0190002BA1F10404B8BFE41800F01E
:1019D000DFF81E4A0198136833B96360146003B0DE
:1019E000BDE8304000F0DAB8A34208D92568611993
:1019F0008B4201BF19685B6849192160EDE71A46FF
:101A00005B680BB1A342FAD911685518A5420BD1F6
:101A1000246821445418A3421160E0D11C685B681B
:101A200053600C441460DAE702D90C230360D6E754
:101A3000256861198B4204BF19685B68636004BF45
:101A4000491921605460CAE703B030BDCC010020C1
:101A500070B50E4E0C463168054611B900F0A6FB74
:101A600030602146284600F0A1FB431C0AD0C41C6C
:101A700024F00304A04207D0211A284600F096FB68
:101A8000013001D14FF0FF34204670BDD00100205D
:101A90002DE9F843CD1C25F0030508350C2D38BF82
:101AA0000C25002D074601DBA94205D90C233B601C
:101AB00000263046BDE8F883DFF8D08000F068F8F3
:101AC000D8F800301C465CBB29463846FFF7C0FFFB
:101AD000431C044655D1D8F800402646002E45D177
:101AE000002C48D023683146384604EB030900F047
:101AF0005DFB81453FD121686D1A29463846FFF7C5
:101B0000A7FF013037D023682B442360D8F800307A
:101B1000002B38D05A68A2422BD100225A600FE025
:101B20002268521B1FD40B2A17D96119A3422560C2
:101B300018BF5960636808BFC8F8001062514B6055
:101B4000384604F10B0600F029F826F00706231D9D
:101B5000F21AAED09B1BA350ABE7A3426268DDD163
:101B6000C8F80020ECE723466468ACE734467668A2
:101B7000B4E71346CCE70C233B60384600F00EF880
:101B800097E72560DCE75B60FFDE00BFCC0100204B
:101B90000148FFF70FBF00BFC80100200148FFF751
:101BA0000ABF00BFC80100202DE9F0478E681F461C
:101BB000BE420B6882460C4690462CD88A8912F4A5
:101BC000906F26D06569096905EB4505A3EB01090E
:101BD00005EBD5757B1C4B446D109D4238BF1D46EF
:101BE000530527D52946FFF753FF064660B3216901
:101BF0004A4600F0EBFAA38923F4906343F0800394
:101C0000A381266165614E44A5EB09052660A560A8
:101C10003E46BE4200D93E4620683246414600F06C
:101C2000ABFAA3689B1BA3602368334423600020A6
:101C3000BDE8F0872A4600F0D7FA06460028E0D132
:101C400021695046FFF7B8FE0C23CAF80030A3897B
:101C500043F04003A3814FF0FF30E9E72DE9F04F57
:101C600098468B891B069DB007460D4614460ED537
:101C70000B6963B94021FFF70BFF2860286120B989
:101C80000C233B604FF0FF30D0E040236B6100231A
:101C9000099320238DF82930CDF80C803023DFF80C
:101CA000A4818DF82A304FF0010923469A4613F893
:101CB000012B0AB1252AF9D1BAEB040B0BD05B46F4
:101CC000224629463846FFF76FFF013000F0A98011
:101CD000099A5A4409929AF80030002B00F0A1802A
:101CE00000234FF0FF32CDE905230AF1010A0493E6
:101CF00007938DF853301A935446052214F8011BAC
:101D00005048FEF76DFA049AD8B9D00644BF202394
:101D10008DF85330110744BF2B238DF853309AF8B8
:101D200000302A2B15D0079A544600204FF00A0C99
:101D3000214611F8013B303B092B4DD9B0B1079238
:101D400014E0A0EB080309FA03F313430493A2463B
:101D5000D2E7039B191D1B680391002BBBBF5B429D
:101D600042F0020207930793B8BF049223782E2B08
:101D70000CD163782A2B34D1039B1A1D1B68039264
:101D8000002BB8BF4FF0FF3302340593DFF8C4A037
:101D9000217803225046FEF723FA38B1049BA0EBCA
:101DA0000A004022824013430134049314F8011BBB
:101DB00025488DF828100622FEF712FA002838D0A0
:101DC000224B1BBB039B073323F00703083303930A
:101DD000099B3344099368E70CFB02320C4601204F
:101DE000A6E700230134059319464FF00A0C20465C
:101DF00010F8012B303A092A03D9002BC6D00591DF
:101E0000C4E70CFB012104460123F0E703AB009378
:101E10002A460F4B04A93846AFF30080421C064601
:101E2000D6D1AB895B063FF52DAF09981DB0BDE853
:101E3000F08F03AB00932A46054B04A9384600F007
:101E400079F8EBE7E9220008F3220008000000001F
:101E5000A91B0008EF2200082DE9F0471646994615
:101E60008A680B69DDF820809342B8BF134633605F
:101E700091F8432007460C460AB1013333602368CA
:101E8000990642BF336802333360256815F00605B2
:101E900006D104F1190AE36832689B1AAB4226DCCA
:101EA00094F84320131E226818BF012392062BD4F6
:101EB00004F1430249463846C04701301ED023682A
:101EC000226903F00603042B02BFE5683368ED1AAC
:101ED000A3680CBF25EAE57500259342C4BF9B1A91
:101EE000ED1800261A34B5421AD1002008E001236B
:101EF000524649463846C047013003D14FF0FF30C3
:101F0000BDE8F0870135C6E7E1185A1C302081F89A
:101F10004300224494F8451082F843100233C7E787
:101F20000123224649463846C0470130E6D00136F3
:101F3000D9E700002DE9FF470F7E0C9D782F9146D1
:101F400080460C469A4601F1430207D8622F0AD810
:101F5000002F00F0D480582F00F0C08004F142051B
:101F600084F842703AE0A7F16303152BF6D801A17B
:101F700051F823F0CD1F0008E11F00085D1F000885
:101F80005D1F00085D1F00085D1F0008E11F0008BD
:101F90005D1F00085D1F00085D1F00085D1F000831
:101FA000E52000080D2000089F2000085D1F0008A4
:101FB0005D1F0008072100085D1F00080D200008B4
:101FC0005D1F00085D1F0008A72000082B681A1D70
:101FD0001B682A6004F1420584F8423001239FE027
:101FE00020682B68070603F10401296001D51E68EB
:101FF00003E04606FBD5B3F90060002E03DA2D237B
:10200000764284F843305A480A2312E02B6820684D
:10201000191D2960050601D51E6802E04106FBD5A1
:102020001E8853486F2F0CBF08230A23002184F811
:1020300043106568A560002DA2BF216821F004014E
:1020400021600EB9002D4BD01546B6FBF3F103FB12
:102050001167C75D05F8017D3746BB420E46F4D9CE
:10206000082B0BD12368DE0708D5236961689942E4
:10207000DEBF302305F8013C05F1FF35521B22611C
:10208000CDF800A04B4603AA21464046FFF7E4FEE8
:1020900001304AD14FF0FF3004B0BDE8F08723682B
:1020A00043F0200323603348782784F84570236881
:1020B00029681F0651F8046B02D45F0648BFB6B208
:1020C000DF0748BF43F02003296048BF23601EB9E3
:1020D000236823F0200323601023A7E72448E4E7C4
:1020E0001546BDE72B6826686169181D286035060E
:1020F0001B6801D5196002E07006FBD5198000232A
:1021000023611546BCE72B681A1D2A601D686268AA
:1021100000212846FEF764F808B1401B6060636840
:102120002361002384F84330AAE723692A464946FD
:102130004046D0470130ADD023689B0713D4E068F8
:10214000039B9842B8BF1846A6E70123324649468A
:102150004046D04701309DD00135E36803995B1AB2
:10216000AB42F2DCEBE7002504F11906F5E700BF0E
:10217000FA2200080B230008884210B501EB020484
:1021800002D98442234607D8431EA14208D011F841
:10219000012B03F8012FF8E7024401468A4200D1DF
:1021A00010BD13F8014D02F8014DF7E738B5064DA3
:1021B0000023044608462B60FFF7DCF8431C02D1DD
:1021C0002B6803B1236038BDC40100200A4491424A
:1021D00000F1FF3300D1704710B511F8014B03F83F
:1021E000014F9142F9D110BD2DE9F04180461446CE
:1021F0000E4621B9BDE8F0411146FFF749BC2AB9A6
:10220000FFF7DAFB25462846BDE8F08100F01BF811
:102210008442074602D8B4EB500F12D821464046FC
:10222000FFF736FC05460028EDD0BC422246314679
:1022300028BF3A46FFF7CAFF31464046FFF7BCFBCE
:10224000E1E73546DFE751F8043C181F002BBCBF1F
:102250000B58C01870470000F8B500BFF8BC08BCA8
:102260009E467047F8B500BFF8BC08BC9E46704754
:1022700054656D703A253264256343205365743A82
:102280002532640046616E3A204F4E2020436F6F26
:102290006C696E670000000046616E3A204F46464A
:1022A000205374616E6462790000000054656D70A3
:1022B0003A25303264256343205365743A20200068
:1022C00054656D703A25303264256343205365743C
:1022D0003A25303264000000202D2D205345542033
:1022E0004D4F4445202D2D2000232D302B200068FC
:1022F0006C4C0065666745464700303132333435F3
:102300003637383941424344454600303132333460
:0C23100035363738396162636465660059
:04231C00C5010008EF
:04232000A10100080F
:10232400190000000024F400000000008C000020CC
:10233400F40000205C010020000000000000000008
:102344000000000000000000000000000000000089
:102354000000000000000000000000000000000079
:102364000000000000000000000000000000000069
:08237400000000000800002039
:0400000508001405D6
:00000001FF
